{
  "contractName": "Loaner",
  "abi": [
    {
      "constant": false,
      "inputs": [],
      "name": "inputFunds",
      "outputs": [],
      "payable": true,
      "stateMutability": "payable",
      "type": "function"
    },
    {
      "constant": false,
      "inputs": [
        {
          "internalType": "uint256",
          "name": "amount",
          "type": "uint256"
        }
      ],
      "name": "withdrawBalance",
      "outputs": [],
      "payable": false,
      "stateMutability": "nonpayable",
      "type": "function"
    },
    {
      "constant": true,
      "inputs": [],
      "name": "getLoans",
      "outputs": [
        {
          "internalType": "uint256[]",
          "name": "",
          "type": "uint256[]"
        }
      ],
      "payable": false,
      "stateMutability": "view",
      "type": "function"
    },
    {
      "constant": true,
      "inputs": [],
      "name": "getNumLoans",
      "outputs": [
        {
          "internalType": "uint256",
          "name": "",
          "type": "uint256"
        }
      ],
      "payable": false,
      "stateMutability": "view",
      "type": "function"
    },
    {
      "constant": false,
      "inputs": [
        {
          "internalType": "uint256",
          "name": "loanAmountInWei",
          "type": "uint256"
        }
      ],
      "name": "askForLoan",
      "outputs": [],
      "payable": false,
      "stateMutability": "nonpayable",
      "type": "function"
    },
    {
      "constant": false,
      "inputs": [
        {
          "internalType": "uint256",
          "name": "loanId",
          "type": "uint256"
        }
      ],
      "name": "giveLoan",
      "outputs": [],
      "payable": false,
      "stateMutability": "nonpayable",
      "type": "function"
    },
    {
      "constant": false,
      "inputs": [
        {
          "internalType": "uint256",
          "name": "loanId",
          "type": "uint256"
        }
      ],
      "name": "payoffLoan",
      "outputs": [],
      "payable": false,
      "stateMutability": "nonpayable",
      "type": "function"
    }
  ],
  "bytecode": "0x608060405234801561001057600080fd5b506108d7806100206000396000f3fe6080604052600436106100705760003560e01c80637648e1951161004e5780637648e195146101265780638e589bfe14610130578063aa4a87111461015b578063da76d5cd146101c757610070565b806327188ea41461007557806362762b15146100b057806369830615146100eb575b600080fd5b34801561008157600080fd5b506100ae6004803603602081101561009857600080fd5b8101908080359060200190929190505050610202565b005b3480156100bc57600080fd5b506100e9600480360360208110156100d357600080fd5b8101908080359060200190929190505050610378565b005b3480156100f757600080fd5b506101246004803603602081101561010e57600080fd5b81019080803590602001909291905050506104cd565b005b61012e610631565b005b34801561013c57600080fd5b50610145610680565b6040518082815260200191505060405180910390f35b34801561016757600080fd5b5061017061068a565b6040518080602001828103825283818151815260200191508051906020019060200280838360005b838110156101b3578082015181840152602081019050610198565b505050509050019250505060405180910390f35b3480156101d357600080fd5b50610200600480360360208110156101ea57600080fd5b8101908080359060200190929190505050610722565b005b600080828154811061021057fe5b906000526020600020906005020190508060000154600360003373ffffffffffffffffffffffffffffffffffffffff1673ffffffffffffffffffffffffffffffffffffffff1681526020019081526020016000205410610374578060000154600360008360010160009054906101000a900473ffffffffffffffffffffffffffffffffffffffff1673ffffffffffffffffffffffffffffffffffffffff1673ffffffffffffffffffffffffffffffffffffffff168152602001908152602001600020600082825401925050819055508060000154600360003373ffffffffffffffffffffffffffffffffffffffff1673ffffffffffffffffffffffffffffffffffffffff16815260200190815260200160002060008282540392505081905550338160020160006101000a81548173ffffffffffffffffffffffffffffffffffffffff021916908373ffffffffffffffffffffffffffffffffffffffff1602179055505b5050565b610380610845565b33816020019073ffffffffffffffffffffffffffffffffffffffff16908173ffffffffffffffffffffffffffffffffffffffff168152505081816000018181525050806000600254815481106103d257fe5b90600052602060002090600502016000820151816000015560208201518160010160006101000a81548173ffffffffffffffffffffffffffffffffffffffff021916908373ffffffffffffffffffffffffffffffffffffffff16021790555060408201518160020160006101000a81548173ffffffffffffffffffffffffffffffffffffffff021916908373ffffffffffffffffffffffffffffffffffffffff1602179055506060820151816003015560808201518160040160006101000a81548160ff0219169083151502179055509050506001600081548092919060010191905055506002600081548092919060010191905055505050565b60008082815481106104db57fe5b906000526020600020906005020190508060010160009054906101000a900473ffffffffffffffffffffffffffffffffffffffff1673ffffffffffffffffffffffffffffffffffffffff163373ffffffffffffffffffffffffffffffffffffffff16141561062d5760008160020160009054906101000a900473ffffffffffffffffffffffffffffffffffffffff1690508160000154600360003373ffffffffffffffffffffffffffffffffffffffff1673ffffffffffffffffffffffffffffffffffffffff168152602001908152602001600020600082825403925050819055508160000154600360008373ffffffffffffffffffffffffffffffffffffffff1673ffffffffffffffffffffffffffffffffffffffff1681526020019081526020016000206000828254019250508190555060018260040160006101000a81548160ff021916908315150217905550505b5050565b34600360003373ffffffffffffffffffffffffffffffffffffffff1673ffffffffffffffffffffffffffffffffffffffff16815260200190815260200160002060008282540192505081905550565b6000600154905090565b6060806001546040519080825280602002602001820160405280156106be5781602001602082028038833980820191505090505b50905060008090505b60015481101561071a5760008082815481106106df57fe5b90600052602060002090600502019050806000015483838151811061070057fe5b6020026020010181815250505080806001019150506106c7565b508091505090565b600360003373ffffffffffffffffffffffffffffffffffffffff1673ffffffffffffffffffffffffffffffffffffffff168152602001908152602001600020548111610842576000600360003373ffffffffffffffffffffffffffffffffffffffff1673ffffffffffffffffffffffffffffffffffffffff16815260200190815260200160002054905081600360003373ffffffffffffffffffffffffffffffffffffffff1673ffffffffffffffffffffffffffffffffffffffff168152602001908152602001600020600082825403925050819055503373ffffffffffffffffffffffffffffffffffffffff166108fc839081150290604051600060405180830381858888f1935050505015801561083f573d6000803e3d6000fd5b50505b50565b6040518060a0016040528060008152602001600073ffffffffffffffffffffffffffffffffffffffff168152602001600073ffffffffffffffffffffffffffffffffffffffff16815260200160008152602001600015158152509056fea265627a7a723158205f2467c562fd7c3fa59ca12ec74d9d78591b878a28a39c5274ca30462c07ca6764736f6c63430005100032",
  "source": "pragma solidity ^0.5.0;\n\ncontract Loaner {\n    struct Loan {\n        uint256 amount;\n        address borrower;\n        address lender;\n        uint256 interest;\n        bool hasBeenSettled;\n    }\n\n    // loanId is the index of the loan\n    Loan[] private loans;\n    uint256 private numLoans;\n    uint256 private idCounter;\n    mapping(address => uint256) balances;\n\n    function inputFunds() public payable {\n        balances[msg.sender] += msg.value;\n    }\n\n    function withdrawBalance(uint256 amount) public {\n        if (amount <= balances[msg.sender]) {\n            uint256 currBalance = balances[msg.sender];\n            balances[msg.sender] -= amount;\n            msg.sender.transfer(amount);\n        }\n    }\n\n    function getLoans() public view returns (uint256[] memory) {\n        uint256[] memory loanAmounts = new uint256[](numLoans);\n        for (uint256 i = 0; i < numLoans; i++) {\n            Loan storage loan = loans[i];\n            loanAmounts[i] = loan.amount;\n        }\n        return loanAmounts;\n    }\n\n    function getNumLoans() public view returns (uint256) {\n        return numLoans;\n    }\n\n    function askForLoan(uint256 loanAmountInWei) public {\n        Loan memory newLoan;\n        newLoan.borrower = msg.sender;\n        newLoan.amount = loanAmountInWei;\n        loans[idCounter] = newLoan;\n        numLoans++;\n        idCounter++;\n\n        // TODO:  Emit event saying new loan has appeared\n    }\n\n    function giveLoan(uint256 loanId) public {\n        Loan storage loan = loans[loanId];\n        if (balances[msg.sender] >= loan.amount) {\n            balances[loan.borrower] += loan.amount;\n            balances[msg.sender] -= loan.amount;\n            loan.lender = msg.sender;\n\n            // TODO: loan.interest = find out how to send data from UI to do this.\n            // TODO:  Emit event saying loan has been provided and needs to be withdrawn.\n            //\n        }\n    }\n\n    function payoffLoan(uint256 loanId) public {\n        Loan storage loan = loans[loanId];\n        if (msg.sender == loan.borrower) {\n            address lender = loan.lender;\n            balances[msg.sender] -= loan.amount;\n            balances[lender] += loan.amount;\n            loan.hasBeenSettled = true;\n        }\n\n        // TODO:  Emit event saying loan has been paid\n    }\n}\n",
  "sourcePath": "/Users/cds95/Documents/truffle/lending-dapp/contracts/Loaner.sol",
  "compiler": {
    "name": "solc",
    "version": "0.5.16+commit.9c3226ce.Emscripten.clang"
  },
  "schemaVersion": "3.3.2",
  "updatedAt": "2020-12-18T05:11:04.540Z",
  "devdoc": {
    "methods": {}
  },
  "userdoc": {
    "methods": {}
  }
}