{
  "contractName": "Loaner",
  "abi": [
    {
      "constant": true,
      "inputs": [],
      "name": "getLoans",
      "outputs": [
        {
          "internalType": "uint256[]",
          "name": "",
          "type": "uint256[]"
        }
      ],
      "payable": false,
      "stateMutability": "view",
      "type": "function"
    },
    {
      "constant": true,
      "inputs": [],
      "name": "getNumLoans",
      "outputs": [
        {
          "internalType": "uint256",
          "name": "",
          "type": "uint256"
        }
      ],
      "payable": false,
      "stateMutability": "view",
      "type": "function"
    },
    {
      "constant": false,
      "inputs": [
        {
          "internalType": "uint256",
          "name": "loanAmountInWei",
          "type": "uint256"
        }
      ],
      "name": "askForLoan",
      "outputs": [],
      "payable": false,
      "stateMutability": "nonpayable",
      "type": "function"
    }
  ],
  "bytecode": "0x608060405234801561001057600080fd5b5061036e806100206000396000f3fe608060405234801561001057600080fd5b50600436106100415760003560e01c806362762b15146100465780638e589bfe14610074578063aa4a871114610092575b600080fd5b6100726004803603602081101561005c57600080fd5b81019080803590602001909291905050506100f1565b005b61007c61023c565b6040518082815260200191505060405180910390f35b61009a610246565b6040518080602001828103825283818151815260200191508051906020019060200280838360005b838110156100dd5780820151818401526020810190506100c2565b505050509050019250505060405180910390f35b6100f96102de565b60025481600001818152505033816040019073ffffffffffffffffffffffffffffffffffffffff16908173ffffffffffffffffffffffffffffffffffffffff1681525050818160200181815250508060006001548154811061015757fe5b9060005260206000209060050201600082015181600001556020820151816001015560408201518160020160006101000a81548173ffffffffffffffffffffffffffffffffffffffff021916908373ffffffffffffffffffffffffffffffffffffffff16021790555060608201518160030160006101000a81548173ffffffffffffffffffffffffffffffffffffffff021916908373ffffffffffffffffffffffffffffffffffffffff160217905550608082015181600401559050506001600081548092919060010191905055506002600081548092919060010191905055505050565b6000600154905090565b60608060015460405190808252806020026020018201604052801561027a5781602001602082028038833980820191505090505b50905060008090505b6001548110156102d657600080828154811061029b57fe5b9060005260206000209060050201905080600101548383815181106102bc57fe5b602002602001018181525050508080600101915050610283565b508091505090565b6040518060a001604052806000815260200160008152602001600073ffffffffffffffffffffffffffffffffffffffff168152602001600073ffffffffffffffffffffffffffffffffffffffff16815260200160008152509056fea265627a7a723158206f251e6dc64dfcdf5e0ff21b3ef84f47f036b24a7095db5fc3ed2698528d633364736f6c63430005100032",
  "source": "pragma solidity ^0.5.0;\n\ncontract Loaner {\n    struct Loan {\n        uint256 id;\n        uint256 amount;\n        address borrower;\n        address lender;\n        uint256 interest;\n    }\n\n    Loan[] private loans;\n    uint256 private numLoans;\n    uint256 private idCounter;\n\n    function getLoans() public view returns (uint256[] memory) {\n        uint256[] memory loanAmounts = new uint256[](numLoans);\n        for (uint256 i = 0; i < numLoans; i++) {\n            Loan storage loan = loans[i];\n            loanAmounts[i] = loan.amount;\n        }\n        return loanAmounts;\n    }\n\n    function getNumLoans() public view returns (uint256) {\n        return numLoans;\n    }\n\n    function askForLoan(uint256 loanAmountInWei) public {\n        Loan memory newLoan;\n        newLoan.id = idCounter;\n        newLoan.borrower = msg.sender;\n        newLoan.amount = loanAmountInWei;\n        loans[numLoans] = newLoan;\n        numLoans++;\n        idCounter++;\n    }\n}\n",
  "sourcePath": "/Users/cds95/Documents/truffle/lending-dapp/contracts/Loaner.sol",
  "compiler": {
    "name": "solc",
    "version": "0.5.16+commit.9c3226ce.Emscripten.clang"
  },
  "schemaVersion": "3.3.2",
  "updatedAt": "2020-12-18T04:49:37.797Z",
  "devdoc": {
    "methods": {}
  },
  "userdoc": {
    "methods": {}
  }
}