{
  "contractName": "Loaner",
  "abi": [
    {
      "anonymous": false,
      "inputs": [
        {
          "indexed": true,
          "internalType": "address",
          "name": "from",
          "type": "address"
        },
        {
          "indexed": false,
          "internalType": "uint256",
          "name": "value",
          "type": "uint256"
        }
      ],
      "name": "FundsDeposited",
      "type": "event"
    },
    {
      "anonymous": false,
      "inputs": [
        {
          "indexed": true,
          "internalType": "address",
          "name": "from",
          "type": "address"
        },
        {
          "indexed": false,
          "internalType": "uint256",
          "name": "amountWithdrawn",
          "type": "uint256"
        }
      ],
      "name": "FundsWithdrawn",
      "type": "event"
    },
    {
      "anonymous": false,
      "inputs": [
        {
          "indexed": false,
          "internalType": "uint256",
          "name": "loanId",
          "type": "uint256"
        },
        {
          "indexed": true,
          "internalType": "address",
          "name": "borrower",
          "type": "address"
        },
        {
          "indexed": false,
          "internalType": "uint256",
          "name": "loanAmount",
          "type": "uint256"
        }
      ],
      "name": "LoanAsked",
      "type": "event"
    },
    {
      "anonymous": false,
      "inputs": [
        {
          "indexed": true,
          "internalType": "address",
          "name": "borrower",
          "type": "address"
        }
      ],
      "name": "LoanPaidOff",
      "type": "event"
    },
    {
      "anonymous": false,
      "inputs": [
        {
          "indexed": true,
          "internalType": "address",
          "name": "lender",
          "type": "address"
        }
      ],
      "name": "LoanProvided",
      "type": "event"
    },
    {
      "constant": true,
      "inputs": [
        {
          "internalType": "uint256",
          "name": "",
          "type": "uint256"
        }
      ],
      "name": "loans",
      "outputs": [
        {
          "internalType": "uint256",
          "name": "amount",
          "type": "uint256"
        },
        {
          "internalType": "address",
          "name": "borrower",
          "type": "address"
        },
        {
          "internalType": "address",
          "name": "lender",
          "type": "address"
        },
        {
          "internalType": "uint256",
          "name": "interest",
          "type": "uint256"
        },
        {
          "internalType": "bool",
          "name": "hasBeenSettled",
          "type": "bool"
        }
      ],
      "payable": false,
      "stateMutability": "view",
      "type": "function"
    },
    {
      "constant": false,
      "inputs": [],
      "name": "inputFunds",
      "outputs": [],
      "payable": true,
      "stateMutability": "payable",
      "type": "function"
    },
    {
      "constant": true,
      "inputs": [
        {
          "internalType": "address",
          "name": "a",
          "type": "address"
        }
      ],
      "name": "getBalance",
      "outputs": [
        {
          "internalType": "uint256",
          "name": "",
          "type": "uint256"
        }
      ],
      "payable": false,
      "stateMutability": "view",
      "type": "function"
    },
    {
      "constant": false,
      "inputs": [
        {
          "internalType": "uint256",
          "name": "amount",
          "type": "uint256"
        }
      ],
      "name": "withdrawBalance",
      "outputs": [],
      "payable": false,
      "stateMutability": "nonpayable",
      "type": "function"
    },
    {
      "constant": true,
      "inputs": [],
      "name": "getLoans",
      "outputs": [
        {
          "internalType": "uint256[]",
          "name": "",
          "type": "uint256[]"
        },
        {
          "internalType": "uint256[]",
          "name": "",
          "type": "uint256[]"
        },
        {
          "internalType": "address[]",
          "name": "",
          "type": "address[]"
        },
        {
          "internalType": "address[]",
          "name": "",
          "type": "address[]"
        },
        {
          "internalType": "bool[]",
          "name": "",
          "type": "bool[]"
        }
      ],
      "payable": false,
      "stateMutability": "view",
      "type": "function"
    },
    {
      "constant": true,
      "inputs": [],
      "name": "getNumLoans",
      "outputs": [
        {
          "internalType": "uint256",
          "name": "",
          "type": "uint256"
        }
      ],
      "payable": false,
      "stateMutability": "view",
      "type": "function"
    },
    {
      "constant": false,
      "inputs": [
        {
          "internalType": "uint256",
          "name": "loanAmountInWei",
          "type": "uint256"
        }
      ],
      "name": "askForLoan",
      "outputs": [],
      "payable": false,
      "stateMutability": "nonpayable",
      "type": "function"
    },
    {
      "constant": false,
      "inputs": [
        {
          "internalType": "uint256",
          "name": "loanId",
          "type": "uint256"
        }
      ],
      "name": "giveLoan",
      "outputs": [],
      "payable": false,
      "stateMutability": "nonpayable",
      "type": "function"
    },
    {
      "constant": false,
      "inputs": [
        {
          "internalType": "uint256",
          "name": "loanId",
          "type": "uint256"
        }
      ],
      "name": "payoffLoan",
      "outputs": [],
      "payable": false,
      "stateMutability": "nonpayable",
      "type": "function"
    }
  ],
  "bytecode": "0x608060405234801561001057600080fd5b50611130806100206000396000f3fe6080604052600436106100865760003560e01c80638e589bfe116100595780638e589bfe14610146578063aa4a871114610171578063da76d5cd146102fd578063e1ec3c6814610338578063f8b2cb4f146103ff57610086565b806327188ea41461008b57806362762b15146100c657806369830615146101015780637648e1951461013c575b600080fd5b34801561009757600080fd5b506100c4600480360360208110156100ae57600080fd5b8101908080359060200190929190505050610464565b005b3480156100d257600080fd5b506100ff600480360360208110156100e957600080fd5b810190808035906020019092919050505061066e565b005b34801561010d57600080fd5b5061013a6004803603602081101561012457600080fd5b810190808035906020019092919050505061081e565b005b610144610a14565b005b34801561015257600080fd5b5061015b610ab1565b6040518082815260200191505060405180910390f35b34801561017d57600080fd5b50610186610abb565b60405180806020018060200180602001806020018060200186810386528b818151815260200191508051906020019060200280838360005b838110156101d95780820151818401526020810190506101be565b5050505090500186810385528a818151815260200191508051906020019060200280838360005b8381101561021b578082015181840152602081019050610200565b50505050905001868103845289818151815260200191508051906020019060200280838360005b8381101561025d578082015181840152602081019050610242565b50505050905001868103835288818151815260200191508051906020019060200280838360005b8381101561029f578082015181840152602081019050610284565b50505050905001868103825287818151815260200191508051906020019060200280838360005b838110156102e15780820151818401526020810190506102c6565b505050509050019a505050505050505050505060405180910390f35b34801561030957600080fd5b506103366004803603602081101561032057600080fd5b8101908080359060200190929190505050610d64565b005b34801561034457600080fd5b506103716004803603602081101561035b57600080fd5b8101908080359060200190929190505050610f26565b604051808681526020018573ffffffffffffffffffffffffffffffffffffffff1673ffffffffffffffffffffffffffffffffffffffff1681526020018473ffffffffffffffffffffffffffffffffffffffff1673ffffffffffffffffffffffffffffffffffffffff168152602001838152602001821515151581526020019550505050505060405180910390f35b34801561040b57600080fd5b5061044e6004803603602081101561042257600080fd5b81019080803573ffffffffffffffffffffffffffffffffffffffff169060200190929190505050610fb6565b6040518082815260200191505060405180910390f35b600080828154811061047257fe5b906000526020600020906005020190508060000154600360003373ffffffffffffffffffffffffffffffffffffffff1673ffffffffffffffffffffffffffffffffffffffff16815260200190815260200160002054101561051e576040517f08c379a000000000000000000000000000000000000000000000000000000000815260040180806020018281038252604181526020018061105d6041913960600191505060405180910390fd5b8060000154600360008360010160009054906101000a900473ffffffffffffffffffffffffffffffffffffffff1673ffffffffffffffffffffffffffffffffffffffff1673ffffffffffffffffffffffffffffffffffffffff168152602001908152602001600020600082825401925050819055508060000154600360003373ffffffffffffffffffffffffffffffffffffffff1673ffffffffffffffffffffffffffffffffffffffff16815260200190815260200160002060008282540392505081905550338160020160006101000a81548173ffffffffffffffffffffffffffffffffffffffff021916908373ffffffffffffffffffffffffffffffffffffffff1602179055503373ffffffffffffffffffffffffffffffffffffffff167f3e8d8115472dbb577aaf87fcb3f9da55b701cc89ad36efc03587625af0e3e85460405160405180910390a25050565b610676610fff565b33816020019073ffffffffffffffffffffffffffffffffffffffff16908173ffffffffffffffffffffffffffffffffffffffff168152505081816000018181525050600081908060018154018082558091505090600182039060005260206000209060050201600090919290919091506000820151816000015560208201518160010160006101000a81548173ffffffffffffffffffffffffffffffffffffffff021916908373ffffffffffffffffffffffffffffffffffffffff16021790555060408201518160020160006101000a81548173ffffffffffffffffffffffffffffffffffffffff021916908373ffffffffffffffffffffffffffffffffffffffff1602179055506060820151816003015560808201518160040160006101000a81548160ff0219169083151502179055505050503373ffffffffffffffffffffffffffffffffffffffff167fcfac66c108f9ec89ba4e137c69fa012f2bd0a60454b537bc5f3f07e544d6630f60025484604051808381526020018281526020019250505060405180910390a260018054016001819055506001600254016002819055505050565b600080828154811061082c57fe5b906000526020600020906005020190508060010160009054906101000a900473ffffffffffffffffffffffffffffffffffffffff1673ffffffffffffffffffffffffffffffffffffffff163373ffffffffffffffffffffffffffffffffffffffff16146108e4576040517f08c379a00000000000000000000000000000000000000000000000000000000081526004018080602001828103825260278152602001806110d56027913960400191505060405180910390fd5b60008160020160009054906101000a900473ffffffffffffffffffffffffffffffffffffffff1690508160000154600360003373ffffffffffffffffffffffffffffffffffffffff1673ffffffffffffffffffffffffffffffffffffffff168152602001908152602001600020600082825403925050819055508160000154600360008373ffffffffffffffffffffffffffffffffffffffff1673ffffffffffffffffffffffffffffffffffffffff1681526020019081526020016000206000828254019250508190555060018260040160006101000a81548160ff0219169083151502179055503373ffffffffffffffffffffffffffffffffffffffff167fdfc91b3e0d4b9ee740a686cc2314d9e00415903259d30707bee85d1a91ac573660405160405180910390a2505050565b34600360003373ffffffffffffffffffffffffffffffffffffffff1673ffffffffffffffffffffffffffffffffffffffff168152602001908152602001600020600082825401925050819055503373ffffffffffffffffffffffffffffffffffffffff167f543ba50a5eec5e6178218e364b1d0f396157b3c8fa278522c2cb7fd99407d474346040518082815260200191505060405180910390a2565b6000600154905090565b606080606080606080600154604051908082528060200260200182016040528015610af55781602001602082028038833980820191505090505b5090506060600154604051908082528060200260200182016040528015610b2b5781602001602082028038833980820191505090505b5090506060600154604051908082528060200260200182016040528015610b615781602001602082028038833980820191505090505b5090506060600154604051908082528060200260200182016040528015610b975781602001602082028038833980820191505090505b5090506060600154604051908082528060200260200182016040528015610bcd5781602001602082028038833980820191505090505b50905060008090505b600154811015610d48576000808281548110610bee57fe5b9060005260206000209060050201905081878381518110610c0b57fe5b6020026020010181815250508060000154868381518110610c2857fe5b6020026020010181815250508060010160009054906101000a900473ffffffffffffffffffffffffffffffffffffffff16858381518110610c6557fe5b602002602001019073ffffffffffffffffffffffffffffffffffffffff16908173ffffffffffffffffffffffffffffffffffffffff16815250508060020160009054906101000a900473ffffffffffffffffffffffffffffffffffffffff16848381518110610cd057fe5b602002602001019073ffffffffffffffffffffffffffffffffffffffff16908173ffffffffffffffffffffffffffffffffffffffff16815250508060040160009054906101000a900460ff16838381518110610d2857fe5b602002602001019015159081151581525050508080600101915050610bd6565b5084848484849950995099509950995050505050509091929394565b600360003373ffffffffffffffffffffffffffffffffffffffff1673ffffffffffffffffffffffffffffffffffffffff16815260200190815260200160002054811115610dfc576040517f08c379a000000000000000000000000000000000000000000000000000000000815260040180806020018281038252603781526020018061109e6037913960400191505060405180910390fd5b6000600360003373ffffffffffffffffffffffffffffffffffffffff1673ffffffffffffffffffffffffffffffffffffffff16815260200190815260200160002054905081600360003373ffffffffffffffffffffffffffffffffffffffff1673ffffffffffffffffffffffffffffffffffffffff168152602001908152602001600020600082825403925050819055503373ffffffffffffffffffffffffffffffffffffffff166108fc839081150290604051600060405180830381858888f19350505050158015610ed3573d6000803e3d6000fd5b503373ffffffffffffffffffffffffffffffffffffffff167feaff4b37086828766ad3268786972c0cd24259d4c87a80f9d3963a3c3d999b0d836040518082815260200191505060405180910390a25050565b60008181548110610f3357fe5b90600052602060002090600502016000915090508060000154908060010160009054906101000a900473ffffffffffffffffffffffffffffffffffffffff16908060020160009054906101000a900473ffffffffffffffffffffffffffffffffffffffff16908060030154908060040160009054906101000a900460ff16905085565b6000600360008373ffffffffffffffffffffffffffffffffffffffff1673ffffffffffffffffffffffffffffffffffffffff168152602001908152602001600020549050919050565b6040518060a0016040528060008152602001600073ffffffffffffffffffffffffffffffffffffffff168152602001600073ffffffffffffffffffffffffffffffffffffffff16815260200160008152602001600015158152509056fe43616e6e6f742067697665206c6f616e20617320616464726573732062616c616e6365206973206c657373207468616e20746865206c6f616e20616d6f756e742e43616e6e6f7420776974686472617720616e20616d6f756e742067726561746572207468616e2063757272656e742062616c616e63652e4f6e6c792074686520626f72726f7765722063616e20706179206f666620746865206c6f616e2ea265627a7a72315820b6baa3037492c54ae0d3730c50387052964a2e3f5c8b71eee7df29ef5084a87a64736f6c63430005100032",
  "source": "pragma solidity ^0.5.0;\n\ncontract Loaner {\n    struct Loan {\n        uint256 amount;\n        address borrower;\n        address lender;\n        uint256 interest;\n        bool hasBeenSettled;\n    }\n\n    // loanId is the index of the loan\n    Loan[] public loans;\n    uint256 private numLoans;\n    uint256 private idCounter;\n    mapping(address => uint256) balances;\n\n    event FundsDeposited(address indexed from, uint256 value);\n    event FundsWithdrawn(address indexed from, uint256 amountWithdrawn);\n    event LoanAsked(\n        uint256 loanId,\n        address indexed borrower,\n        uint256 loanAmount\n    );\n    event LoanProvided(address indexed lender);\n    event LoanPaidOff(address indexed borrower);\n\n    function inputFunds() public payable {\n        balances[msg.sender] += msg.value;\n        emit FundsDeposited(msg.sender, msg.value);\n    }\n\n    function getBalance(address a) public view returns (uint256) {\n        return balances[a];\n    }\n\n    function withdrawBalance(uint256 amount) public {\n        require(\n            amount <= balances[msg.sender],\n            \"Cannot withdraw an amount greater than current balance.\"\n        );\n        uint256 currBalance = balances[msg.sender];\n        balances[msg.sender] -= amount;\n        msg.sender.transfer(amount);\n        emit FundsWithdrawn(msg.sender, amount);\n    }\n\n    function getLoans()\n        public\n        view\n        returns (\n            uint256[] memory,\n            uint256[] memory,\n            address[] memory,\n            address[] memory,\n            bool[] memory\n        )\n    {\n        uint256[] memory loanIds = new uint256[](numLoans);\n        uint256[] memory loanAmounts = new uint256[](numLoans);\n        address[] memory borrowers = new address[](numLoans);\n        address[] memory lenders = new address[](numLoans);\n        bool[] memory hasBeenSettledStates = new bool[](numLoans);\n        for (uint256 i = 0; i < numLoans; i++) {\n            Loan storage loan = loans[i];\n            loanIds[i] = i;\n            loanAmounts[i] = loan.amount;\n            borrowers[i] = loan.borrower;\n            lenders[i] = loan.lender;\n            hasBeenSettledStates[i] = loan.hasBeenSettled;\n        }\n        return (loanIds, loanAmounts, borrowers, lenders, hasBeenSettledStates);\n    }\n\n    function getNumLoans() public view returns (uint256) {\n        return numLoans;\n    }\n\n    function askForLoan(uint256 loanAmountInWei) public {\n        Loan memory newLoan;\n        newLoan.borrower = msg.sender;\n        newLoan.amount = loanAmountInWei;\n        loans.push(newLoan);\n        emit LoanAsked(idCounter, msg.sender, loanAmountInWei);\n        numLoans = numLoans + 1;\n        idCounter = idCounter + 1;\n    }\n\n    function giveLoan(uint256 loanId) public {\n        Loan storage loan = loans[loanId];\n        require(\n            balances[msg.sender] >= loan.amount,\n            \"Cannot give loan as address balance is less than the loan amount.\"\n        );\n        balances[loan.borrower] += loan.amount;\n        balances[msg.sender] -= loan.amount;\n        loan.lender = msg.sender;\n\n        // TODO: loan.interest = find out how to send data from UI to do this.\n        emit LoanProvided(msg.sender);\n    }\n\n    function payoffLoan(uint256 loanId) public {\n        Loan storage loan = loans[loanId];\n        require(\n            msg.sender == loan.borrower,\n            \"Only the borrower can pay off the loan.\"\n        );\n        address lender = loan.lender;\n        balances[msg.sender] -= loan.amount;\n        balances[lender] += loan.amount;\n        loan.hasBeenSettled = true;\n        emit LoanPaidOff(msg.sender);\n    }\n}\n",
  "sourcePath": "/Users/cds95/Documents/truffle/lending-dapp/contracts/Loaner.sol",
  "compiler": {
    "name": "solc",
    "version": "0.5.16+commit.9c3226ce.Emscripten.clang"
  },
  "schemaVersion": "3.3.2",
  "updatedAt": "2020-12-20T17:30:15.173Z",
  "devdoc": {
    "methods": {}
  },
  "userdoc": {
    "methods": {}
  }
}