{
  "contractName": "Loaner",
  "abi": [
    {
      "constant": true,
      "inputs": [
        {
          "internalType": "uint256",
          "name": "",
          "type": "uint256"
        }
      ],
      "name": "loans",
      "outputs": [
        {
          "internalType": "uint256",
          "name": "amount",
          "type": "uint256"
        },
        {
          "internalType": "address",
          "name": "borrower",
          "type": "address"
        },
        {
          "internalType": "address",
          "name": "lender",
          "type": "address"
        },
        {
          "internalType": "uint256",
          "name": "interest",
          "type": "uint256"
        },
        {
          "internalType": "bool",
          "name": "hasBeenSettled",
          "type": "bool"
        }
      ],
      "payable": false,
      "stateMutability": "view",
      "type": "function"
    },
    {
      "constant": false,
      "inputs": [],
      "name": "inputFunds",
      "outputs": [],
      "payable": true,
      "stateMutability": "payable",
      "type": "function"
    },
    {
      "constant": false,
      "inputs": [
        {
          "internalType": "uint256",
          "name": "amount",
          "type": "uint256"
        }
      ],
      "name": "withdrawBalance",
      "outputs": [],
      "payable": false,
      "stateMutability": "nonpayable",
      "type": "function"
    },
    {
      "constant": true,
      "inputs": [],
      "name": "getLoans",
      "outputs": [
        {
          "internalType": "uint256[]",
          "name": "",
          "type": "uint256[]"
        },
        {
          "internalType": "address[]",
          "name": "",
          "type": "address[]"
        }
      ],
      "payable": false,
      "stateMutability": "view",
      "type": "function"
    },
    {
      "constant": true,
      "inputs": [],
      "name": "getNumLoans",
      "outputs": [
        {
          "internalType": "uint256",
          "name": "",
          "type": "uint256"
        }
      ],
      "payable": false,
      "stateMutability": "view",
      "type": "function"
    },
    {
      "constant": false,
      "inputs": [
        {
          "internalType": "uint256",
          "name": "loanAmountInWei",
          "type": "uint256"
        }
      ],
      "name": "askForLoan",
      "outputs": [],
      "payable": false,
      "stateMutability": "nonpayable",
      "type": "function"
    },
    {
      "constant": false,
      "inputs": [
        {
          "internalType": "uint256",
          "name": "loanId",
          "type": "uint256"
        }
      ],
      "name": "giveLoan",
      "outputs": [],
      "payable": false,
      "stateMutability": "nonpayable",
      "type": "function"
    },
    {
      "constant": false,
      "inputs": [
        {
          "internalType": "uint256",
          "name": "loanId",
          "type": "uint256"
        }
      ],
      "name": "payoffLoan",
      "outputs": [],
      "payable": false,
      "stateMutability": "nonpayable",
      "type": "function"
    }
  ],
  "bytecode": "0x608060405234801561001057600080fd5b50610b2c806100206000396000f3fe60806040526004361061007b5760003560e01c80638e589bfe1161004e5780638e589bfe1461013b578063aa4a871114610166578063da76d5cd1461021a578063e1ec3c68146102555761007b565b806327188ea41461008057806362762b15146100bb57806369830615146100f65780637648e19514610131575b600080fd5b34801561008c57600080fd5b506100b9600480360360208110156100a357600080fd5b810190808035906020019092919050505061031c565b005b3480156100c757600080fd5b506100f4600480360360208110156100de57600080fd5b8101908080359060200190929190505050610492565b005b34801561010257600080fd5b5061012f6004803603602081101561011957600080fd5b81019080803590602001909291905050506105ea565b005b61013961074e565b005b34801561014757600080fd5b5061015061079d565b6040518082815260200191505060405180910390f35b34801561017257600080fd5b5061017b6107a7565b604051808060200180602001838103835285818151815260200191508051906020019060200280838360005b838110156101c25780820151818401526020810190506101a7565b50505050905001838103825284818151815260200191508051906020019060200280838360005b838110156102045780820151818401526020810190506101e9565b5050505090500194505050505060405180910390f35b34801561022657600080fd5b506102536004803603602081101561023d57600080fd5b81019080803590602001909291905050506108e7565b005b34801561026157600080fd5b5061028e6004803603602081101561027857600080fd5b8101908080359060200190929190505050610a0a565b604051808681526020018573ffffffffffffffffffffffffffffffffffffffff1673ffffffffffffffffffffffffffffffffffffffff1681526020018473ffffffffffffffffffffffffffffffffffffffff1673ffffffffffffffffffffffffffffffffffffffff168152602001838152602001821515151581526020019550505050505060405180910390f35b600080828154811061032a57fe5b906000526020600020906005020190508060000154600360003373ffffffffffffffffffffffffffffffffffffffff1673ffffffffffffffffffffffffffffffffffffffff168152602001908152602001600020541061048e578060000154600360008360010160009054906101000a900473ffffffffffffffffffffffffffffffffffffffff1673ffffffffffffffffffffffffffffffffffffffff1673ffffffffffffffffffffffffffffffffffffffff168152602001908152602001600020600082825401925050819055508060000154600360003373ffffffffffffffffffffffffffffffffffffffff1673ffffffffffffffffffffffffffffffffffffffff16815260200190815260200160002060008282540392505081905550338160020160006101000a81548173ffffffffffffffffffffffffffffffffffffffff021916908373ffffffffffffffffffffffffffffffffffffffff1602179055505b5050565b61049a610a9a565b33816020019073ffffffffffffffffffffffffffffffffffffffff16908173ffffffffffffffffffffffffffffffffffffffff168152505081816000018181525050600081908060018154018082558091505090600182039060005260206000209060050201600090919290919091506000820151816000015560208201518160010160006101000a81548173ffffffffffffffffffffffffffffffffffffffff021916908373ffffffffffffffffffffffffffffffffffffffff16021790555060408201518160020160006101000a81548173ffffffffffffffffffffffffffffffffffffffff021916908373ffffffffffffffffffffffffffffffffffffffff1602179055506060820151816003015560808201518160040160006101000a81548160ff02191690831515021790555050505060018054016001819055506001600254016002819055505050565b60008082815481106105f857fe5b906000526020600020906005020190508060010160009054906101000a900473ffffffffffffffffffffffffffffffffffffffff1673ffffffffffffffffffffffffffffffffffffffff163373ffffffffffffffffffffffffffffffffffffffff16141561074a5760008160020160009054906101000a900473ffffffffffffffffffffffffffffffffffffffff1690508160000154600360003373ffffffffffffffffffffffffffffffffffffffff1673ffffffffffffffffffffffffffffffffffffffff168152602001908152602001600020600082825403925050819055508160000154600360008373ffffffffffffffffffffffffffffffffffffffff1673ffffffffffffffffffffffffffffffffffffffff1681526020019081526020016000206000828254019250508190555060018260040160006101000a81548160ff021916908315150217905550505b5050565b34600360003373ffffffffffffffffffffffffffffffffffffffff1673ffffffffffffffffffffffffffffffffffffffff16815260200190815260200160002060008282540192505081905550565b6000600154905090565b60608060606001546040519080825280602002602001820160405280156107dd5781602001602082028038833980820191505090505b50905060606001546040519080825280602002602001820160405280156108135781602001602082028038833980820191505090505b50905060008090505b6001548110156108da57600080828154811061083457fe5b90600052602060002090600502019050806000015484838151811061085557fe5b6020026020010181815250508060010160009054906101000a900473ffffffffffffffffffffffffffffffffffffffff1683838151811061089257fe5b602002602001019073ffffffffffffffffffffffffffffffffffffffff16908173ffffffffffffffffffffffffffffffffffffffff168152505050808060010191505061081c565b5081819350935050509091565b600360003373ffffffffffffffffffffffffffffffffffffffff1673ffffffffffffffffffffffffffffffffffffffff168152602001908152602001600020548111610a07576000600360003373ffffffffffffffffffffffffffffffffffffffff1673ffffffffffffffffffffffffffffffffffffffff16815260200190815260200160002054905081600360003373ffffffffffffffffffffffffffffffffffffffff1673ffffffffffffffffffffffffffffffffffffffff168152602001908152602001600020600082825403925050819055503373ffffffffffffffffffffffffffffffffffffffff166108fc839081150290604051600060405180830381858888f19350505050158015610a04573d6000803e3d6000fd5b50505b50565b60008181548110610a1757fe5b90600052602060002090600502016000915090508060000154908060010160009054906101000a900473ffffffffffffffffffffffffffffffffffffffff16908060020160009054906101000a900473ffffffffffffffffffffffffffffffffffffffff16908060030154908060040160009054906101000a900460ff16905085565b6040518060a0016040528060008152602001600073ffffffffffffffffffffffffffffffffffffffff168152602001600073ffffffffffffffffffffffffffffffffffffffff16815260200160008152602001600015158152509056fea265627a7a723158204cf82a3727e7067b313580e09cbd27b92cc122ad91ca61d96c79461a06dadf9764736f6c63430005100032",
  "source": "pragma solidity ^0.5.0;\n\ncontract Loaner {\n    struct Loan {\n        uint256 amount;\n        address borrower;\n        address lender;\n        uint256 interest;\n        bool hasBeenSettled;\n    }\n\n    // loanId is the index of the loan\n    Loan[] public loans;\n    uint256 private numLoans;\n    uint256 private idCounter;\n    mapping(address => uint256) balances;\n\n    function inputFunds() public payable {\n        balances[msg.sender] += msg.value;\n    }\n\n    function withdrawBalance(uint256 amount) public {\n        if (amount <= balances[msg.sender]) {\n            uint256 currBalance = balances[msg.sender];\n            balances[msg.sender] -= amount;\n            msg.sender.transfer(amount);\n        }\n    }\n\n    function getLoans()\n        public\n        view\n        returns (uint256[] memory, address[] memory)\n    {\n        uint256[] memory loanAmounts = new uint256[](numLoans);\n        address[] memory borrowers = new address[](numLoans);\n        for (uint256 i = 0; i < numLoans; i++) {\n            Loan storage loan = loans[i];\n            loanAmounts[i] = loan.amount;\n            borrowers[i] = loan.borrower;\n        }\n        return (loanAmounts, borrowers);\n    }\n\n    function getNumLoans() public view returns (uint256) {\n        return numLoans;\n    }\n\n    function askForLoan(uint256 loanAmountInWei) public {\n        Loan memory newLoan;\n        newLoan.borrower = msg.sender;\n        newLoan.amount = loanAmountInWei;\n        loans.push(newLoan);\n        numLoans = numLoans + 1;\n        idCounter = idCounter + 1;\n\n        // TODO:  Emit event saying new loan has appeared\n    }\n\n    function giveLoan(uint256 loanId) public {\n        Loan storage loan = loans[loanId];\n        if (balances[msg.sender] >= loan.amount) {\n            balances[loan.borrower] += loan.amount;\n            balances[msg.sender] -= loan.amount;\n            loan.lender = msg.sender;\n\n            // TODO: loan.interest = find out how to send data from UI to do this.\n            // TODO:  Emit event saying loan has been provided and needs to be withdrawn.\n            //\n        }\n    }\n\n    function payoffLoan(uint256 loanId) public {\n        Loan storage loan = loans[loanId];\n        if (msg.sender == loan.borrower) {\n            address lender = loan.lender;\n            balances[msg.sender] -= loan.amount;\n            balances[lender] += loan.amount;\n            loan.hasBeenSettled = true;\n        }\n\n        // TODO:  Emit event saying loan has been paid\n    }\n}\n",
  "sourcePath": "/Users/cds95/Documents/truffle/lending-dapp/contracts/Loaner.sol",
  "compiler": {
    "name": "solc",
    "version": "0.5.16+commit.9c3226ce.Emscripten.clang"
  },
  "schemaVersion": "3.3.2",
  "updatedAt": "2020-12-18T20:11:20.706Z",
  "networkType": "ethereum",
  "devdoc": {
    "methods": {}
  },
  "userdoc": {
    "methods": {}
  }
}