{
    "contractName": "Loaner",
    "abi": [
        {
            "anonymous": false,
            "inputs": [
                {
                    "indexed": true,
                    "internalType": "address",
                    "name": "from",
                    "type": "address"
                },
                {
                    "indexed": false,
                    "internalType": "uint256",
                    "name": "value",
                    "type": "uint256"
                }
            ],
            "name": "FundsDeposited",
            "type": "event"
        },
        {
            "anonymous": false,
            "inputs": [
                {
                    "indexed": true,
                    "internalType": "address",
                    "name": "from",
                    "type": "address"
                },
                {
                    "indexed": false,
                    "internalType": "uint256",
                    "name": "amountWithdrawn",
                    "type": "uint256"
                }
            ],
            "name": "FundsWithdrawn",
            "type": "event"
        },
        {
            "anonymous": false,
            "inputs": [
                {
                    "indexed": false,
                    "internalType": "uint256",
                    "name": "loanId",
                    "type": "uint256"
                },
                {
                    "indexed": true,
                    "internalType": "address",
                    "name": "borrower",
                    "type": "address"
                },
                {
                    "indexed": false,
                    "internalType": "uint256",
                    "name": "loanAmount",
                    "type": "uint256"
                }
            ],
            "name": "LoanAsked",
            "type": "event"
        },
        {
            "anonymous": false,
            "inputs": [
                {
                    "indexed": true,
                    "internalType": "address",
                    "name": "borrower",
                    "type": "address"
                }
            ],
            "name": "LoanPaidOff",
            "type": "event"
        },
        {
            "anonymous": false,
            "inputs": [
                {
                    "indexed": true,
                    "internalType": "address",
                    "name": "lender",
                    "type": "address"
                }
            ],
            "name": "LoanProvided",
            "type": "event"
        },
        {
            "constant": true,
            "inputs": [
                {
                    "internalType": "uint256",
                    "name": "",
                    "type": "uint256"
                }
            ],
            "name": "loans",
            "outputs": [
                {
                    "internalType": "uint256",
                    "name": "amount",
                    "type": "uint256"
                },
                {
                    "internalType": "address",
                    "name": "borrower",
                    "type": "address"
                },
                {
                    "internalType": "address",
                    "name": "lender",
                    "type": "address"
                },
                {
                    "internalType": "uint256",
                    "name": "interest",
                    "type": "uint256"
                },
                {
                    "internalType": "bool",
                    "name": "hasBeenSettled",
                    "type": "bool"
                }
            ],
            "payable": false,
            "stateMutability": "view",
            "type": "function"
        },
        {
            "constant": false,
            "inputs": [],
            "name": "inputFunds",
            "outputs": [],
            "payable": true,
            "stateMutability": "payable",
            "type": "function"
        },
        {
            "constant": true,
            "inputs": [
                {
                    "internalType": "address",
                    "name": "a",
                    "type": "address"
                }
            ],
            "name": "getBalance",
            "outputs": [
                {
                    "internalType": "uint256",
                    "name": "",
                    "type": "uint256"
                }
            ],
            "payable": false,
            "stateMutability": "view",
            "type": "function"
        },
        {
            "constant": false,
            "inputs": [
                {
                    "internalType": "uint256",
                    "name": "amount",
                    "type": "uint256"
                }
            ],
            "name": "withdrawBalance",
            "outputs": [],
            "payable": false,
            "stateMutability": "nonpayable",
            "type": "function"
        },
        {
            "constant": true,
            "inputs": [],
            "name": "getLoans",
            "outputs": [
                {
                    "internalType": "uint256[]",
                    "name": "",
                    "type": "uint256[]"
                },
                {
                    "internalType": "address[]",
                    "name": "",
                    "type": "address[]"
                }
            ],
            "payable": false,
            "stateMutability": "view",
            "type": "function"
        },
        {
            "constant": true,
            "inputs": [],
            "name": "getNumLoans",
            "outputs": [
                {
                    "internalType": "uint256",
                    "name": "",
                    "type": "uint256"
                }
            ],
            "payable": false,
            "stateMutability": "view",
            "type": "function"
        },
        {
            "constant": false,
            "inputs": [
                {
                    "internalType": "uint256",
                    "name": "loanAmountInWei",
                    "type": "uint256"
                }
            ],
            "name": "askForLoan",
            "outputs": [],
            "payable": false,
            "stateMutability": "nonpayable",
            "type": "function"
        },
        {
            "constant": false,
            "inputs": [
                {
                    "internalType": "uint256",
                    "name": "loanId",
                    "type": "uint256"
                }
            ],
            "name": "giveLoan",
            "outputs": [],
            "payable": false,
            "stateMutability": "nonpayable",
            "type": "function"
        },
        {
            "constant": false,
            "inputs": [
                {
                    "internalType": "uint256",
                    "name": "loanId",
                    "type": "uint256"
                }
            ],
            "name": "payoffLoan",
            "outputs": [],
            "payable": false,
            "stateMutability": "nonpayable",
            "type": "function"
        }
    ],
    "bytecode": "0x608060405234801561001057600080fd5b50610d5f806100206000396000f3fe6080604052600436106100865760003560e01c80638e589bfe116100595780638e589bfe14610146578063aa4a871114610171578063da76d5cd14610225578063e1ec3c6814610260578063f8b2cb4f1461032757610086565b806327188ea41461008b57806362762b15146100c657806369830615146101015780637648e1951461013c575b600080fd5b34801561009757600080fd5b506100c4600480360360208110156100ae57600080fd5b810190808035906020019092919050505061038c565b005b3480156100d257600080fd5b506100ff600480360360208110156100e957600080fd5b8101908080359060200190929190505050610545565b005b34801561010d57600080fd5b5061013a6004803603602081101561012457600080fd5b81019080803590602001909291905050506106f5565b005b61014461089c565b005b34801561015257600080fd5b5061015b610939565b6040518082815260200191505060405180910390f35b34801561017d57600080fd5b50610186610943565b604051808060200180602001838103835285818151815260200191508051906020019060200280838360005b838110156101cd5780820151818401526020810190506101b2565b50505050905001838103825284818151815260200191508051906020019060200280838360005b8381101561020f5780820151818401526020810190506101f4565b5050505090500194505050505060405180910390f35b34801561023157600080fd5b5061025e6004803603602081101561024857600080fd5b8101908080359060200190929190505050610a83565b005b34801561026c57600080fd5b506102996004803603602081101561028357600080fd5b8101908080359060200190929190505050610bf4565b604051808681526020018573ffffffffffffffffffffffffffffffffffffffff1673ffffffffffffffffffffffffffffffffffffffff1681526020018473ffffffffffffffffffffffffffffffffffffffff1673ffffffffffffffffffffffffffffffffffffffff168152602001838152602001821515151581526020019550505050505060405180910390f35b34801561033357600080fd5b506103766004803603602081101561034a57600080fd5b81019080803573ffffffffffffffffffffffffffffffffffffffff169060200190929190505050610c84565b6040518082815260200191505060405180910390f35b600080828154811061039a57fe5b906000526020600020906005020190508060000154600360003373ffffffffffffffffffffffffffffffffffffffff1673ffffffffffffffffffffffffffffffffffffffff1681526020019081526020016000205410610541578060000154600360008360010160009054906101000a900473ffffffffffffffffffffffffffffffffffffffff1673ffffffffffffffffffffffffffffffffffffffff1673ffffffffffffffffffffffffffffffffffffffff168152602001908152602001600020600082825401925050819055508060000154600360003373ffffffffffffffffffffffffffffffffffffffff1673ffffffffffffffffffffffffffffffffffffffff16815260200190815260200160002060008282540392505081905550338160020160006101000a81548173ffffffffffffffffffffffffffffffffffffffff021916908373ffffffffffffffffffffffffffffffffffffffff1602179055503373ffffffffffffffffffffffffffffffffffffffff167f3e8d8115472dbb577aaf87fcb3f9da55b701cc89ad36efc03587625af0e3e85460405160405180910390a25b5050565b61054d610ccd565b33816020019073ffffffffffffffffffffffffffffffffffffffff16908173ffffffffffffffffffffffffffffffffffffffff168152505081816000018181525050600081908060018154018082558091505090600182039060005260206000209060050201600090919290919091506000820151816000015560208201518160010160006101000a81548173ffffffffffffffffffffffffffffffffffffffff021916908373ffffffffffffffffffffffffffffffffffffffff16021790555060408201518160020160006101000a81548173ffffffffffffffffffffffffffffffffffffffff021916908373ffffffffffffffffffffffffffffffffffffffff1602179055506060820151816003015560808201518160040160006101000a81548160ff0219169083151502179055505050503373ffffffffffffffffffffffffffffffffffffffff167fcfac66c108f9ec89ba4e137c69fa012f2bd0a60454b537bc5f3f07e544d6630f60025484604051808381526020018281526020019250505060405180910390a260018054016001819055506001600254016002819055505050565b600080828154811061070357fe5b906000526020600020906005020190508060010160009054906101000a900473ffffffffffffffffffffffffffffffffffffffff1673ffffffffffffffffffffffffffffffffffffffff163373ffffffffffffffffffffffffffffffffffffffff1614156108555760008160020160009054906101000a900473ffffffffffffffffffffffffffffffffffffffff1690508160000154600360003373ffffffffffffffffffffffffffffffffffffffff1673ffffffffffffffffffffffffffffffffffffffff168152602001908152602001600020600082825403925050819055508160000154600360008373ffffffffffffffffffffffffffffffffffffffff1673ffffffffffffffffffffffffffffffffffffffff1681526020019081526020016000206000828254019250508190555060018260040160006101000a81548160ff021916908315150217905550505b3373ffffffffffffffffffffffffffffffffffffffff167fdfc91b3e0d4b9ee740a686cc2314d9e00415903259d30707bee85d1a91ac573660405160405180910390a25050565b34600360003373ffffffffffffffffffffffffffffffffffffffff1673ffffffffffffffffffffffffffffffffffffffff168152602001908152602001600020600082825401925050819055503373ffffffffffffffffffffffffffffffffffffffff167f543ba50a5eec5e6178218e364b1d0f396157b3c8fa278522c2cb7fd99407d474346040518082815260200191505060405180910390a2565b6000600154905090565b60608060606001546040519080825280602002602001820160405280156109795781602001602082028038833980820191505090505b50905060606001546040519080825280602002602001820160405280156109af5781602001602082028038833980820191505090505b50905060008090505b600154811015610a765760008082815481106109d057fe5b9060005260206000209060050201905080600001548483815181106109f157fe5b6020026020010181815250508060010160009054906101000a900473ffffffffffffffffffffffffffffffffffffffff16838381518110610a2e57fe5b602002602001019073ffffffffffffffffffffffffffffffffffffffff16908173ffffffffffffffffffffffffffffffffffffffff16815250505080806001019150506109b8565b5081819350935050509091565b600360003373ffffffffffffffffffffffffffffffffffffffff1673ffffffffffffffffffffffffffffffffffffffff168152602001908152602001600020548111610bf1576000600360003373ffffffffffffffffffffffffffffffffffffffff1673ffffffffffffffffffffffffffffffffffffffff16815260200190815260200160002054905081600360003373ffffffffffffffffffffffffffffffffffffffff1673ffffffffffffffffffffffffffffffffffffffff168152602001908152602001600020600082825403925050819055503373ffffffffffffffffffffffffffffffffffffffff166108fc839081150290604051600060405180830381858888f19350505050158015610ba0573d6000803e3d6000fd5b503373ffffffffffffffffffffffffffffffffffffffff167feaff4b37086828766ad3268786972c0cd24259d4c87a80f9d3963a3c3d999b0d836040518082815260200191505060405180910390a2505b50565b60008181548110610c0157fe5b90600052602060002090600502016000915090508060000154908060010160009054906101000a900473ffffffffffffffffffffffffffffffffffffffff16908060020160009054906101000a900473ffffffffffffffffffffffffffffffffffffffff16908060030154908060040160009054906101000a900460ff16905085565b6000600360008373ffffffffffffffffffffffffffffffffffffffff1673ffffffffffffffffffffffffffffffffffffffff168152602001908152602001600020549050919050565b6040518060a0016040528060008152602001600073ffffffffffffffffffffffffffffffffffffffff168152602001600073ffffffffffffffffffffffffffffffffffffffff16815260200160008152602001600015158152509056fea265627a7a723158201c0628a28a8e8b97fcf9121ef9bd63279e6f6dff1b292b8446acdde26f8069b664736f6c63430005100032",
    "source": "pragma solidity ^0.5.0;\n\ncontract Loaner {\n    struct Loan {\n        uint256 amount;\n        address borrower;\n        address lender;\n        uint256 interest;\n        bool hasBeenSettled;\n    }\n\n    // loanId is the index of the loan\n    Loan[] public loans;\n    uint256 private numLoans;\n    uint256 private idCounter;\n    mapping(address => uint256) balances;\n\n    event FundsDeposited(address indexed from, uint256 value);\n    event FundsWithdrawn(address indexed from, uint256 amountWithdrawn);\n    event LoanAsked(\n        uint256 loanId,\n        address indexed borrower,\n        uint256 loanAmount\n    );\n    event LoanProvided(address indexed lender);\n    event LoanPaidOff(address indexed borrower);\n\n    function inputFunds() public payable {\n        balances[msg.sender] += msg.value;\n        emit FundsDeposited(msg.sender, msg.value);\n    }\n\n    function getBalance(address a) public view returns (uint256) {\n        return balances[a];\n    }\n\n    function withdrawBalance(uint256 amount) public {\n        if (amount <= balances[msg.sender]) {\n            uint256 currBalance = balances[msg.sender];\n            balances[msg.sender] -= amount;\n            msg.sender.transfer(amount);\n            emit FundsWithdrawn(msg.sender, amount);\n        }\n    }\n\n    function getLoans()\n        public\n        view\n        returns (uint256[] memory, address[] memory)\n    {\n        uint256[] memory loanAmounts = new uint256[](numLoans);\n        address[] memory borrowers = new address[](numLoans);\n        for (uint256 i = 0; i < numLoans; i++) {\n            Loan storage loan = loans[i];\n            loanAmounts[i] = loan.amount;\n            borrowers[i] = loan.borrower;\n        }\n        return (loanAmounts, borrowers);\n    }\n\n    function getNumLoans() public view returns (uint256) {\n        return numLoans;\n    }\n\n    function askForLoan(uint256 loanAmountInWei) public {\n        Loan memory newLoan;\n        newLoan.borrower = msg.sender;\n        newLoan.amount = loanAmountInWei;\n        loans.push(newLoan);\n        emit LoanAsked(idCounter, msg.sender, loanAmountInWei);\n        numLoans = numLoans + 1;\n        idCounter = idCounter + 1;\n    }\n\n    function giveLoan(uint256 loanId) public {\n        Loan storage loan = loans[loanId];\n        if (balances[msg.sender] >= loan.amount) {\n            balances[loan.borrower] += loan.amount;\n            balances[msg.sender] -= loan.amount;\n            loan.lender = msg.sender;\n\n            // TODO: loan.interest = find out how to send data from UI to do this.\n            emit LoanProvided(msg.sender);\n        }\n    }\n\n    function payoffLoan(uint256 loanId) public {\n        Loan storage loan = loans[loanId];\n        if (msg.sender == loan.borrower) {\n            address lender = loan.lender;\n            balances[msg.sender] -= loan.amount;\n            balances[lender] += loan.amount;\n            loan.hasBeenSettled = true;\n        }\n        emit LoanPaidOff(msg.sender);\n    }\n}\n",
    "sourcePath": "/Users/cds95/Documents/truffle/lending-dapp/contracts/Loaner.sol",
    "compiler": {
        "name": "solc",
        "version": "0.5.16+commit.9c3226ce.Emscripten.clang"
    },
    "schemaVersion": "3.3.2",
    "updatedAt": "2020-12-19T22:24:24.028Z",
    "networkType": "ethereum",
    "devdoc": {
        "methods": {}
    },
    "userdoc": {
        "methods": {}
    }
}