{
  "contractName": "Loaner",
  "abi": [
    {
      "constant": false,
      "inputs": [],
      "name": "inputFunds",
      "outputs": [],
      "payable": true,
      "stateMutability": "payable",
      "type": "function"
    },
    {
      "constant": true,
      "inputs": [],
      "name": "getLoans",
      "outputs": [
        {
          "internalType": "uint256[]",
          "name": "",
          "type": "uint256[]"
        }
      ],
      "payable": false,
      "stateMutability": "view",
      "type": "function"
    },
    {
      "constant": true,
      "inputs": [],
      "name": "getNumLoans",
      "outputs": [
        {
          "internalType": "uint256",
          "name": "",
          "type": "uint256"
        }
      ],
      "payable": false,
      "stateMutability": "view",
      "type": "function"
    },
    {
      "constant": false,
      "inputs": [
        {
          "internalType": "uint256",
          "name": "loanAmountInWei",
          "type": "uint256"
        }
      ],
      "name": "askForLoan",
      "outputs": [],
      "payable": false,
      "stateMutability": "nonpayable",
      "type": "function"
    },
    {
      "constant": false,
      "inputs": [
        {
          "internalType": "uint256",
          "name": "loanId",
          "type": "uint256"
        }
      ],
      "name": "giveLoan",
      "outputs": [],
      "payable": false,
      "stateMutability": "nonpayable",
      "type": "function"
    },
    {
      "constant": false,
      "inputs": [
        {
          "internalType": "uint256",
          "name": "loanId",
          "type": "uint256"
        }
      ],
      "name": "withdrawLoan",
      "outputs": [],
      "payable": false,
      "stateMutability": "nonpayable",
      "type": "function"
    }
  ],
  "bytecode": "0x608060405234801561001057600080fd5b50610813806100206000396000f3fe6080604052600436106100555760003560e01c806327188ea41461005a5780632a104d8d1461009557806362762b15146100d05780637648e1951461010b5780638e589bfe14610115578063aa4a871114610140575b600080fd5b34801561006657600080fd5b506100936004803603602081101561007d57600080fd5b81019080803590602001909291905050506101ac565b005b3480156100a157600080fd5b506100ce600480360360208110156100b857600080fd5b8101908080359060200190929190505050610322565b005b3480156100dc57600080fd5b50610109600480360360208110156100f357600080fd5b810190808035906020019092919050505061053b565b005b610113610690565b005b34801561012157600080fd5b5061012a6106df565b6040518082815260200191505060405180910390f35b34801561014c57600080fd5b506101556106e9565b6040518080602001828103825283818151815260200191508051906020019060200280838360005b8381101561019857808201518184015260208101905061017d565b505050509050019250505060405180910390f35b60008082815481106101ba57fe5b906000526020600020906005020190508060000154600360003373ffffffffffffffffffffffffffffffffffffffff1673ffffffffffffffffffffffffffffffffffffffff168152602001908152602001600020541061031e578060000154600460008360010160009054906101000a900473ffffffffffffffffffffffffffffffffffffffff1673ffffffffffffffffffffffffffffffffffffffff1673ffffffffffffffffffffffffffffffffffffffff168152602001908152602001600020600082825401925050819055508060000154600360003373ffffffffffffffffffffffffffffffffffffffff1673ffffffffffffffffffffffffffffffffffffffff16815260200190815260200160002060008282540392505081905550338160020160006101000a81548173ffffffffffffffffffffffffffffffffffffffff021916908373ffffffffffffffffffffffffffffffffffffffff1602179055505b5050565b61032a610781565b6000828154811061033757fe5b90600052602060002090600502016040518060a0016040529081600082015481526020016001820160009054906101000a900473ffffffffffffffffffffffffffffffffffffffff1673ffffffffffffffffffffffffffffffffffffffff1673ffffffffffffffffffffffffffffffffffffffff1681526020016002820160009054906101000a900473ffffffffffffffffffffffffffffffffffffffff1673ffffffffffffffffffffffffffffffffffffffff1673ffffffffffffffffffffffffffffffffffffffff168152602001600382015481526020016004820160009054906101000a900460ff1615151515815250509050806020015173ffffffffffffffffffffffffffffffffffffffff163373ffffffffffffffffffffffffffffffffffffffff161415610537576000600460003373ffffffffffffffffffffffffffffffffffffffff1673ffffffffffffffffffffffffffffffffffffffff1681526020019081526020016000205490506000600460003373ffffffffffffffffffffffffffffffffffffffff1673ffffffffffffffffffffffffffffffffffffffff168152602001908152602001600020819055503373ffffffffffffffffffffffffffffffffffffffff166108fc829081150290604051600060405180830381858888f19350505050158015610534573d6000803e3d6000fd5b50505b5050565b610543610781565b33816020019073ffffffffffffffffffffffffffffffffffffffff16908173ffffffffffffffffffffffffffffffffffffffff1681525050818160000181815250508060006002548154811061059557fe5b90600052602060002090600502016000820151816000015560208201518160010160006101000a81548173ffffffffffffffffffffffffffffffffffffffff021916908373ffffffffffffffffffffffffffffffffffffffff16021790555060408201518160020160006101000a81548173ffffffffffffffffffffffffffffffffffffffff021916908373ffffffffffffffffffffffffffffffffffffffff1602179055506060820151816003015560808201518160040160006101000a81548160ff0219169083151502179055509050506001600081548092919060010191905055506002600081548092919060010191905055505050565b34600460003373ffffffffffffffffffffffffffffffffffffffff1673ffffffffffffffffffffffffffffffffffffffff16815260200190815260200160002060008282540192505081905550565b6000600154905090565b60608060015460405190808252806020026020018201604052801561071d5781602001602082028038833980820191505090505b50905060008090505b60015481101561077957600080828154811061073e57fe5b90600052602060002090600502019050806000015483838151811061075f57fe5b602002602001018181525050508080600101915050610726565b508091505090565b6040518060a0016040528060008152602001600073ffffffffffffffffffffffffffffffffffffffff168152602001600073ffffffffffffffffffffffffffffffffffffffff16815260200160008152602001600015158152509056fea265627a7a723158201f5573e091909e667c8b1a3367ff0c00d09decb3b30b6a38a8e65bd907b424c764736f6c63430005100032",
  "source": "pragma solidity ^0.5.0;\n\ncontract Loaner {\n    struct Loan {\n        uint256 amount;\n        address borrower;\n        address lender;\n        uint256 interest;\n        bool hasBeenSettled;\n    }\n\n    // loanId is the index of the loan\n    Loan[] private loans;\n    uint256 private numLoans;\n    uint256 private idCounter;\n    mapping(address => uint256) balances;\n    mapping(address => uint256) pendingLoanWithdrawals;\n\n    function inputFunds() public payable {\n        pendingLoanWithdrawals[msg.sender] += msg.value;\n    }\n\n    function getLoans() public view returns (uint256[] memory) {\n        uint256[] memory loanAmounts = new uint256[](numLoans);\n        for (uint256 i = 0; i < numLoans; i++) {\n            Loan storage loan = loans[i];\n            loanAmounts[i] = loan.amount;\n        }\n        return loanAmounts;\n    }\n\n    function getNumLoans() public view returns (uint256) {\n        return numLoans;\n    }\n\n    function askForLoan(uint256 loanAmountInWei) public {\n        Loan memory newLoan;\n        newLoan.borrower = msg.sender;\n        newLoan.amount = loanAmountInWei;\n        loans[idCounter] = newLoan;\n        numLoans++;\n        idCounter++;\n\n        // TODO:  Emit event saying new loan has appeared\n    }\n\n    function giveLoan(uint256 loanId) public {\n        Loan storage loan = loans[loanId];\n        if (balances[msg.sender] >= loan.amount) {\n            pendingLoanWithdrawals[loan.borrower] += loan.amount;\n            balances[msg.sender] -= loan.amount;\n            loan.lender = msg.sender;\n\n            // TODO: loan.interest = find out how to send data from UI to do this.\n            // TODO:  Emit event saying loan has been provided and needs to be withdrawn.\n            //\n        }\n    }\n\n    function withdrawLoan(uint256 loanId) public {\n        Loan memory loan = loans[loanId];\n        if (msg.sender == loan.borrower) {\n            uint256 amount = pendingLoanWithdrawals[msg.sender];\n            pendingLoanWithdrawals[msg.sender] = 0;\n            msg.sender.transfer(amount);\n        }\n    }\n}\n",
  "sourcePath": "/Users/cds95/Documents/truffle/lending-dapp/contracts/Loaner.sol",
  "compiler": {
    "name": "solc",
    "version": "0.5.16+commit.9c3226ce.Emscripten.clang"
  },
  "schemaVersion": "3.3.2",
  "updatedAt": "2020-12-18T05:02:56.318Z",
  "devdoc": {
    "methods": {}
  },
  "userdoc": {
    "methods": {}
  }
}