{
    "contractName": "Loaner",
    "abi": [
        {
            "anonymous": false,
            "inputs": [
                {
                    "indexed": true,
                    "internalType": "address",
                    "name": "from",
                    "type": "address"
                },
                {
                    "indexed": false,
                    "internalType": "uint256",
                    "name": "value",
                    "type": "uint256"
                }
            ],
            "name": "FundsDeposited",
            "type": "event"
        },
        {
            "anonymous": false,
            "inputs": [
                {
                    "indexed": true,
                    "internalType": "address",
                    "name": "from",
                    "type": "address"
                },
                {
                    "indexed": false,
                    "internalType": "uint256",
                    "name": "amountWithdrawn",
                    "type": "uint256"
                }
            ],
            "name": "FundsWithdrawn",
            "type": "event"
        },
        {
            "anonymous": false,
            "inputs": [
                {
                    "indexed": false,
                    "internalType": "uint256",
                    "name": "loanId",
                    "type": "uint256"
                },
                {
                    "indexed": true,
                    "internalType": "address",
                    "name": "borrower",
                    "type": "address"
                },
                {
                    "indexed": false,
                    "internalType": "uint256",
                    "name": "loanAmount",
                    "type": "uint256"
                }
            ],
            "name": "LoanAsked",
            "type": "event"
        },
        {
            "anonymous": false,
            "inputs": [
                {
                    "indexed": true,
                    "internalType": "address",
                    "name": "borrower",
                    "type": "address"
                }
            ],
            "name": "LoanPaidOff",
            "type": "event"
        },
        {
            "anonymous": false,
            "inputs": [
                {
                    "indexed": true,
                    "internalType": "address",
                    "name": "lender",
                    "type": "address"
                }
            ],
            "name": "LoanProvided",
            "type": "event"
        },
        {
            "constant": true,
            "inputs": [
                {
                    "internalType": "uint256",
                    "name": "",
                    "type": "uint256"
                }
            ],
            "name": "loans",
            "outputs": [
                {
                    "internalType": "uint256",
                    "name": "amount",
                    "type": "uint256"
                },
                {
                    "internalType": "address",
                    "name": "borrower",
                    "type": "address"
                },
                {
                    "internalType": "address",
                    "name": "lender",
                    "type": "address"
                },
                {
                    "internalType": "uint256",
                    "name": "interest",
                    "type": "uint256"
                },
                {
                    "internalType": "bool",
                    "name": "hasBeenSettled",
                    "type": "bool"
                }
            ],
            "payable": false,
            "stateMutability": "view",
            "type": "function"
        },
        {
            "constant": false,
            "inputs": [],
            "name": "inputFunds",
            "outputs": [],
            "payable": true,
            "stateMutability": "payable",
            "type": "function"
        },
        {
            "constant": true,
            "inputs": [],
            "name": "getBalance",
            "outputs": [
                {
                    "internalType": "uint256",
                    "name": "",
                    "type": "uint256"
                }
            ],
            "payable": false,
            "stateMutability": "view",
            "type": "function"
        },
        {
            "constant": false,
            "inputs": [
                {
                    "internalType": "uint256",
                    "name": "amount",
                    "type": "uint256"
                }
            ],
            "name": "withdrawBalance",
            "outputs": [],
            "payable": false,
            "stateMutability": "nonpayable",
            "type": "function"
        },
        {
            "constant": true,
            "inputs": [],
            "name": "getLoans",
            "outputs": [
                {
                    "internalType": "uint256[]",
                    "name": "",
                    "type": "uint256[]"
                },
                {
                    "internalType": "uint256[]",
                    "name": "",
                    "type": "uint256[]"
                },
                {
                    "internalType": "address[]",
                    "name": "",
                    "type": "address[]"
                },
                {
                    "internalType": "address[]",
                    "name": "",
                    "type": "address[]"
                },
                {
                    "internalType": "bool[]",
                    "name": "",
                    "type": "bool[]"
                }
            ],
            "payable": false,
            "stateMutability": "view",
            "type": "function"
        },
        {
            "constant": true,
            "inputs": [],
            "name": "getNumLoans",
            "outputs": [
                {
                    "internalType": "uint256",
                    "name": "",
                    "type": "uint256"
                }
            ],
            "payable": false,
            "stateMutability": "view",
            "type": "function"
        },
        {
            "constant": false,
            "inputs": [
                {
                    "internalType": "uint256",
                    "name": "loanAmountInWei",
                    "type": "uint256"
                }
            ],
            "name": "askForLoan",
            "outputs": [],
            "payable": false,
            "stateMutability": "nonpayable",
            "type": "function"
        },
        {
            "constant": false,
            "inputs": [
                {
                    "internalType": "uint256",
                    "name": "loanId",
                    "type": "uint256"
                }
            ],
            "name": "giveLoan",
            "outputs": [],
            "payable": false,
            "stateMutability": "nonpayable",
            "type": "function"
        },
        {
            "constant": false,
            "inputs": [
                {
                    "internalType": "uint256",
                    "name": "loanId",
                    "type": "uint256"
                }
            ],
            "name": "payoffLoan",
            "outputs": [],
            "payable": false,
            "stateMutability": "nonpayable",
            "type": "function"
        }
    ],
    "bytecode": "0x608060405234801561001057600080fd5b506110af806100206000396000f3fe6080604052600436106100865760003560e01c80637648e195116100595780637648e195146101675780638e589bfe14610171578063aa4a87111461019c578063da76d5cd14610328578063e1ec3c681461036357610086565b806312065fe01461008b57806327188ea4146100b657806362762b15146100f1578063698306151461012c575b600080fd5b34801561009757600080fd5b506100a061042a565b6040518082815260200191505060405180910390f35b3480156100c257600080fd5b506100ef600480360360208110156100d957600080fd5b8101908080359060200190929190505050610471565b005b3480156100fd57600080fd5b5061012a6004803603602081101561011457600080fd5b810190808035906020019092919050505061067b565b005b34801561013857600080fd5b506101656004803603602081101561014f57600080fd5b810190808035906020019092919050505061082b565b005b61016f610a21565b005b34801561017d57600080fd5b50610186610abe565b6040518082815260200191505060405180910390f35b3480156101a857600080fd5b506101b1610ac8565b60405180806020018060200180602001806020018060200186810386528b818151815260200191508051906020019060200280838360005b838110156102045780820151818401526020810190506101e9565b5050505090500186810385528a818151815260200191508051906020019060200280838360005b8381101561024657808201518184015260208101905061022b565b50505050905001868103845289818151815260200191508051906020019060200280838360005b8381101561028857808201518184015260208101905061026d565b50505050905001868103835288818151815260200191508051906020019060200280838360005b838110156102ca5780820151818401526020810190506102af565b50505050905001868103825287818151815260200191508051906020019060200280838360005b8381101561030c5780820151818401526020810190506102f1565b505050509050019a505050505050505050505060405180910390f35b34801561033457600080fd5b506103616004803603602081101561034b57600080fd5b8101908080359060200190929190505050610d71565b005b34801561036f57600080fd5b5061039c6004803603602081101561038657600080fd5b8101908080359060200190929190505050610eee565b604051808681526020018573ffffffffffffffffffffffffffffffffffffffff1673ffffffffffffffffffffffffffffffffffffffff1681526020018473ffffffffffffffffffffffffffffffffffffffff1673ffffffffffffffffffffffffffffffffffffffff168152602001838152602001821515151581526020019550505050505060405180910390f35b6000600360003373ffffffffffffffffffffffffffffffffffffffff1673ffffffffffffffffffffffffffffffffffffffff16815260200190815260200160002054905090565b600080828154811061047f57fe5b906000526020600020906005020190508060000154600360003373ffffffffffffffffffffffffffffffffffffffff1673ffffffffffffffffffffffffffffffffffffffff16815260200190815260200160002054101561052b576040517f08c379a0000000000000000000000000000000000000000000000000000000008152600401808060200182810382526041815260200180610fdc6041913960600191505060405180910390fd5b8060000154600360008360010160009054906101000a900473ffffffffffffffffffffffffffffffffffffffff1673ffffffffffffffffffffffffffffffffffffffff1673ffffffffffffffffffffffffffffffffffffffff168152602001908152602001600020600082825401925050819055508060000154600360003373ffffffffffffffffffffffffffffffffffffffff1673ffffffffffffffffffffffffffffffffffffffff16815260200190815260200160002060008282540392505081905550338160020160006101000a81548173ffffffffffffffffffffffffffffffffffffffff021916908373ffffffffffffffffffffffffffffffffffffffff1602179055503373ffffffffffffffffffffffffffffffffffffffff167f3e8d8115472dbb577aaf87fcb3f9da55b701cc89ad36efc03587625af0e3e85460405160405180910390a25050565b610683610f7e565b33816020019073ffffffffffffffffffffffffffffffffffffffff16908173ffffffffffffffffffffffffffffffffffffffff168152505081816000018181525050600081908060018154018082558091505090600182039060005260206000209060050201600090919290919091506000820151816000015560208201518160010160006101000a81548173ffffffffffffffffffffffffffffffffffffffff021916908373ffffffffffffffffffffffffffffffffffffffff16021790555060408201518160020160006101000a81548173ffffffffffffffffffffffffffffffffffffffff021916908373ffffffffffffffffffffffffffffffffffffffff1602179055506060820151816003015560808201518160040160006101000a81548160ff0219169083151502179055505050503373ffffffffffffffffffffffffffffffffffffffff167fcfac66c108f9ec89ba4e137c69fa012f2bd0a60454b537bc5f3f07e544d6630f60025484604051808381526020018281526020019250505060405180910390a260018054016001819055506001600254016002819055505050565b600080828154811061083957fe5b906000526020600020906005020190508060010160009054906101000a900473ffffffffffffffffffffffffffffffffffffffff1673ffffffffffffffffffffffffffffffffffffffff163373ffffffffffffffffffffffffffffffffffffffff16146108f1576040517f08c379a00000000000000000000000000000000000000000000000000000000081526004018080602001828103825260278152602001806110546027913960400191505060405180910390fd5b60008160020160009054906101000a900473ffffffffffffffffffffffffffffffffffffffff1690508160000154600360003373ffffffffffffffffffffffffffffffffffffffff1673ffffffffffffffffffffffffffffffffffffffff168152602001908152602001600020600082825403925050819055508160000154600360008373ffffffffffffffffffffffffffffffffffffffff1673ffffffffffffffffffffffffffffffffffffffff1681526020019081526020016000206000828254019250508190555060018260040160006101000a81548160ff0219169083151502179055503373ffffffffffffffffffffffffffffffffffffffff167fdfc91b3e0d4b9ee740a686cc2314d9e00415903259d30707bee85d1a91ac573660405160405180910390a2505050565b34600360003373ffffffffffffffffffffffffffffffffffffffff1673ffffffffffffffffffffffffffffffffffffffff168152602001908152602001600020600082825401925050819055503373ffffffffffffffffffffffffffffffffffffffff167f543ba50a5eec5e6178218e364b1d0f396157b3c8fa278522c2cb7fd99407d474346040518082815260200191505060405180910390a2565b6000600154905090565b606080606080606080600154604051908082528060200260200182016040528015610b025781602001602082028038833980820191505090505b5090506060600154604051908082528060200260200182016040528015610b385781602001602082028038833980820191505090505b5090506060600154604051908082528060200260200182016040528015610b6e5781602001602082028038833980820191505090505b5090506060600154604051908082528060200260200182016040528015610ba45781602001602082028038833980820191505090505b5090506060600154604051908082528060200260200182016040528015610bda5781602001602082028038833980820191505090505b50905060008090505b600154811015610d55576000808281548110610bfb57fe5b9060005260206000209060050201905081878381518110610c1857fe5b6020026020010181815250508060000154868381518110610c3557fe5b6020026020010181815250508060010160009054906101000a900473ffffffffffffffffffffffffffffffffffffffff16858381518110610c7257fe5b602002602001019073ffffffffffffffffffffffffffffffffffffffff16908173ffffffffffffffffffffffffffffffffffffffff16815250508060020160009054906101000a900473ffffffffffffffffffffffffffffffffffffffff16848381518110610cdd57fe5b602002602001019073ffffffffffffffffffffffffffffffffffffffff16908173ffffffffffffffffffffffffffffffffffffffff16815250508060040160009054906101000a900460ff16838381518110610d3557fe5b602002602001019015159081151581525050508080600101915050610be3565b5084848484849950995099509950995050505050509091929394565b600360003373ffffffffffffffffffffffffffffffffffffffff1673ffffffffffffffffffffffffffffffffffffffff16815260200190815260200160002054811115610e09576040517f08c379a000000000000000000000000000000000000000000000000000000000815260040180806020018281038252603781526020018061101d6037913960400191505060405180910390fd5b80600360003373ffffffffffffffffffffffffffffffffffffffff1673ffffffffffffffffffffffffffffffffffffffff168152602001908152602001600020600082825403925050819055503373ffffffffffffffffffffffffffffffffffffffff166108fc829081150290604051600060405180830381858888f19350505050158015610e9c573d6000803e3d6000fd5b503373ffffffffffffffffffffffffffffffffffffffff167feaff4b37086828766ad3268786972c0cd24259d4c87a80f9d3963a3c3d999b0d826040518082815260200191505060405180910390a250565b60008181548110610efb57fe5b90600052602060002090600502016000915090508060000154908060010160009054906101000a900473ffffffffffffffffffffffffffffffffffffffff16908060020160009054906101000a900473ffffffffffffffffffffffffffffffffffffffff16908060030154908060040160009054906101000a900460ff16905085565b6040518060a0016040528060008152602001600073ffffffffffffffffffffffffffffffffffffffff168152602001600073ffffffffffffffffffffffffffffffffffffffff16815260200160008152602001600015158152509056fe43616e6e6f742067697665206c6f616e20617320616464726573732062616c616e6365206973206c657373207468616e20746865206c6f616e20616d6f756e742e43616e6e6f7420776974686472617720616e20616d6f756e742067726561746572207468616e2063757272656e742062616c616e63652e4f6e6c792074686520626f72726f7765722063616e20706179206f666620746865206c6f616e2ea265627a7a723158203ac60dbd2f2eb95ac723cf51def4115acce3a7cba28ec83ff56d8af9eadfbe2e64736f6c63430005100032",
    "source": "pragma solidity ^0.5.0;\n\ncontract Loaner {\n    struct Loan {\n        uint256 amount;\n        address borrower;\n        address lender;\n        uint256 interest;\n        bool hasBeenSettled;\n    }\n\n    // loanId is the index of the loan\n    Loan[] public loans;\n    uint256 private numLoans;\n    uint256 private idCounter;\n    mapping(address => uint256) balances;\n\n    event FundsDeposited(address indexed from, uint256 value);\n    event FundsWithdrawn(address indexed from, uint256 amountWithdrawn);\n    event LoanAsked(\n        uint256 loanId,\n        address indexed borrower,\n        uint256 loanAmount\n    );\n    event LoanProvided(address indexed lender);\n    event LoanPaidOff(address indexed borrower);\n\n    function inputFunds() public payable {\n        balances[msg.sender] += msg.value;\n        emit FundsDeposited(msg.sender, msg.value);\n    }\n\n    function getBalance() public view returns (uint256) {\n        return balances[msg.sender];\n    }\n\n    function withdrawBalance(uint256 amount) public {\n        require(\n            amount <= balances[msg.sender],\n            \"Cannot withdraw an amount greater than current balance.\"\n        );\n        balances[msg.sender] -= amount;\n        msg.sender.transfer(amount);\n        emit FundsWithdrawn(msg.sender, amount);\n    }\n\n    function getLoans()\n        public\n        view\n        returns (\n            uint256[] memory,\n            uint256[] memory,\n            address[] memory,\n            address[] memory,\n            bool[] memory\n        )\n    {\n        uint256[] memory loanIds = new uint256[](numLoans);\n        uint256[] memory loanAmounts = new uint256[](numLoans);\n        address[] memory borrowers = new address[](numLoans);\n        address[] memory lenders = new address[](numLoans);\n        bool[] memory hasBeenSettledStates = new bool[](numLoans);\n        for (uint256 i = 0; i < numLoans; i++) {\n            Loan storage loan = loans[i];\n            loanIds[i] = i;\n            loanAmounts[i] = loan.amount;\n            borrowers[i] = loan.borrower;\n            lenders[i] = loan.lender;\n            hasBeenSettledStates[i] = loan.hasBeenSettled;\n        }\n        return (loanIds, loanAmounts, borrowers, lenders, hasBeenSettledStates);\n    }\n\n    function getNumLoans() public view returns (uint256) {\n        return numLoans;\n    }\n\n    function askForLoan(uint256 loanAmountInWei) public {\n        Loan memory newLoan;\n        newLoan.borrower = msg.sender;\n        newLoan.amount = loanAmountInWei;\n        loans.push(newLoan);\n        emit LoanAsked(idCounter, msg.sender, loanAmountInWei);\n        numLoans = numLoans + 1;\n        idCounter = idCounter + 1;\n    }\n\n    function giveLoan(uint256 loanId) public {\n        Loan storage loan = loans[loanId];\n        require(\n            balances[msg.sender] >= loan.amount,\n            \"Cannot give loan as address balance is less than the loan amount.\"\n        );\n        balances[loan.borrower] += loan.amount;\n        balances[msg.sender] -= loan.amount;\n        loan.lender = msg.sender;\n\n        // TODO: loan.interest = find out how to send data from UI to do this.\n        emit LoanProvided(msg.sender);\n    }\n\n    function payoffLoan(uint256 loanId) public {\n        Loan storage loan = loans[loanId];\n        require(\n            msg.sender == loan.borrower,\n            \"Only the borrower can pay off the loan.\"\n        );\n        address lender = loan.lender;\n        balances[msg.sender] -= loan.amount;\n        balances[lender] += loan.amount;\n        loan.hasBeenSettled = true;\n        emit LoanPaidOff(msg.sender);\n    }\n}\n",
    "sourcePath": "/Users/cds95/Documents/truffle/lending-dapp/contracts/Loaner.sol",
    "compiler": {
        "name": "solc",
        "version": "0.5.16+commit.9c3226ce.Emscripten.clang"
    },
    "schemaVersion": "3.3.2",
    "updatedAt": "2020-12-20T17:41:15.030Z",
    "networkType": "ethereum",
    "devdoc": {
        "methods": {}
    },
    "userdoc": {
        "methods": {}
    }
}